{
  "contractName": "ERC721Standard",
  "abi": [
    {
      "inputs": [
        {
          "internalType": "string",
          "name": "name_",
          "type": "string"
        },
        {
          "internalType": "string",
          "name": "symbol_",
          "type": "string"
        }
      ],
      "stateMutability": "nonpayable",
      "type": "constructor"
    },
    {
      "anonymous": false,
      "inputs": [
        {
          "indexed": true,
          "internalType": "address",
          "name": "_owner",
          "type": "address"
        },
        {
          "indexed": true,
          "internalType": "address",
          "name": "_approved",
          "type": "address"
        },
        {
          "indexed": true,
          "internalType": "uint256",
          "name": "_tokenId",
          "type": "uint256"
        }
      ],
      "name": "Approval",
      "type": "event"
    },
    {
      "anonymous": false,
      "inputs": [
        {
          "indexed": true,
          "internalType": "address",
          "name": "_owner",
          "type": "address"
        },
        {
          "indexed": true,
          "internalType": "address",
          "name": "_operator",
          "type": "address"
        },
        {
          "indexed": false,
          "internalType": "bool",
          "name": "_approved",
          "type": "bool"
        }
      ],
      "name": "ApprovalForAll",
      "type": "event"
    },
    {
      "anonymous": false,
      "inputs": [
        {
          "indexed": true,
          "internalType": "address",
          "name": "_from",
          "type": "address"
        },
        {
          "indexed": true,
          "internalType": "address",
          "name": "_to",
          "type": "address"
        },
        {
          "indexed": true,
          "internalType": "uint256",
          "name": "_tokenId",
          "type": "uint256"
        }
      ],
      "name": "Transfer",
      "type": "event"
    },
    {
      "inputs": [],
      "name": "name",
      "outputs": [
        {
          "internalType": "string",
          "name": "",
          "type": "string"
        }
      ],
      "stateMutability": "view",
      "type": "function"
    },
    {
      "inputs": [],
      "name": "symbol",
      "outputs": [
        {
          "internalType": "string",
          "name": "",
          "type": "string"
        }
      ],
      "stateMutability": "view",
      "type": "function"
    },
    {
      "inputs": [],
      "name": "totalSupply",
      "outputs": [
        {
          "internalType": "uint256",
          "name": "",
          "type": "uint256"
        }
      ],
      "stateMutability": "view",
      "type": "function"
    },
    {
      "inputs": [],
      "name": "baseURI",
      "outputs": [
        {
          "internalType": "string",
          "name": "",
          "type": "string"
        }
      ],
      "stateMutability": "view",
      "type": "function"
    },
    {
      "inputs": [
        {
          "internalType": "string",
          "name": "baseURI_",
          "type": "string"
        }
      ],
      "name": "setBaseURI",
      "outputs": [],
      "stateMutability": "nonpayable",
      "type": "function"
    },
    {
      "inputs": [
        {
          "internalType": "address",
          "name": "_owner",
          "type": "address"
        },
        {
          "internalType": "uint256",
          "name": "_index",
          "type": "uint256"
        }
      ],
      "name": "tokenOfOwnerByIndex",
      "outputs": [
        {
          "internalType": "uint256",
          "name": "tokenId",
          "type": "uint256"
        }
      ],
      "stateMutability": "view",
      "type": "function"
    },
    {
      "inputs": [
        {
          "internalType": "uint256",
          "name": "_tokenId",
          "type": "uint256"
        }
      ],
      "name": "getTokenIndexByTokenID",
      "outputs": [
        {
          "internalType": "uint256",
          "name": "",
          "type": "uint256"
        }
      ],
      "stateMutability": "view",
      "type": "function"
    },
    {
      "inputs": [
        {
          "internalType": "uint256",
          "name": "_index",
          "type": "uint256"
        }
      ],
      "name": "tokenByIndex",
      "outputs": [
        {
          "internalType": "uint256",
          "name": "",
          "type": "uint256"
        }
      ],
      "stateMutability": "view",
      "type": "function"
    },
    {
      "inputs": [
        {
          "internalType": "address",
          "name": "_owner",
          "type": "address"
        }
      ],
      "name": "balanceOf",
      "outputs": [
        {
          "internalType": "uint256",
          "name": "",
          "type": "uint256"
        }
      ],
      "stateMutability": "view",
      "type": "function"
    },
    {
      "inputs": [
        {
          "internalType": "uint256",
          "name": "_tokenId",
          "type": "uint256"
        }
      ],
      "name": "tokenURI",
      "outputs": [
        {
          "internalType": "string",
          "name": "",
          "type": "string"
        }
      ],
      "stateMutability": "view",
      "type": "function"
    },
    {
      "inputs": [
        {
          "internalType": "uint256",
          "name": "_tokenId",
          "type": "uint256"
        }
      ],
      "name": "ownerOf",
      "outputs": [
        {
          "internalType": "address",
          "name": "",
          "type": "address"
        }
      ],
      "stateMutability": "view",
      "type": "function"
    },
    {
      "inputs": [
        {
          "internalType": "address",
          "name": "_operator",
          "type": "address"
        },
        {
          "internalType": "uint256",
          "name": "_tokenId",
          "type": "uint256"
        }
      ],
      "name": "approve",
      "outputs": [],
      "stateMutability": "payable",
      "type": "function"
    },
    {
      "inputs": [
        {
          "internalType": "uint256",
          "name": "_tokenId",
          "type": "uint256"
        }
      ],
      "name": "getApproved",
      "outputs": [
        {
          "internalType": "address",
          "name": "",
          "type": "address"
        }
      ],
      "stateMutability": "view",
      "type": "function"
    },
    {
      "inputs": [
        {
          "internalType": "address",
          "name": "_operator",
          "type": "address"
        },
        {
          "internalType": "bool",
          "name": "_approved",
          "type": "bool"
        }
      ],
      "name": "setApprovalForAll",
      "outputs": [],
      "stateMutability": "nonpayable",
      "type": "function"
    },
    {
      "inputs": [
        {
          "internalType": "address",
          "name": "_owner",
          "type": "address"
        },
        {
          "internalType": "address",
          "name": "_operator",
          "type": "address"
        }
      ],
      "name": "isApprovedForAll",
      "outputs": [
        {
          "internalType": "bool",
          "name": "",
          "type": "bool"
        }
      ],
      "stateMutability": "view",
      "type": "function"
    },
    {
      "inputs": [
        {
          "internalType": "address",
          "name": "_from",
          "type": "address"
        },
        {
          "internalType": "address",
          "name": "_to",
          "type": "address"
        },
        {
          "internalType": "uint256",
          "name": "_tokenId",
          "type": "uint256"
        }
      ],
      "name": "transferFrom",
      "outputs": [],
      "stateMutability": "payable",
      "type": "function"
    },
    {
      "inputs": [
        {
          "internalType": "address",
          "name": "_from",
          "type": "address"
        },
        {
          "internalType": "address",
          "name": "_to",
          "type": "address"
        },
        {
          "internalType": "uint256",
          "name": "_tokenId",
          "type": "uint256"
        }
      ],
      "name": "safeTransferFrom",
      "outputs": [],
      "stateMutability": "payable",
      "type": "function"
    },
    {
      "inputs": [
        {
          "internalType": "address",
          "name": "_from",
          "type": "address"
        },
        {
          "internalType": "address",
          "name": "_to",
          "type": "address"
        },
        {
          "internalType": "uint256",
          "name": "_tokenId",
          "type": "uint256"
        },
        {
          "internalType": "bytes",
          "name": "_data",
          "type": "bytes"
        }
      ],
      "name": "safeTransferFrom",
      "outputs": [],
      "stateMutability": "payable",
      "type": "function"
    },
    {
      "inputs": [
        {
          "internalType": "address",
          "name": "_to",
          "type": "address"
        },
        {
          "internalType": "uint256",
          "name": "_tokenId",
          "type": "uint256"
        },
        {
          "internalType": "bytes",
          "name": "data",
          "type": "bytes"
        }
      ],
      "name": "safeMint",
      "outputs": [],
      "stateMutability": "nonpayable",
      "type": "function"
    },
    {
      "inputs": [
        {
          "internalType": "address",
          "name": "_to",
          "type": "address"
        },
        {
          "internalType": "uint256",
          "name": "_tokenId",
          "type": "uint256"
        }
      ],
      "name": "safeMint",
      "outputs": [],
      "stateMutability": "nonpayable",
      "type": "function"
    },
    {
      "inputs": [
        {
          "internalType": "address",
          "name": "_to",
          "type": "address"
        },
        {
          "internalType": "uint256",
          "name": "_tokenId",
          "type": "uint256"
        }
      ],
      "name": "mint",
      "outputs": [],
      "stateMutability": "nonpayable",
      "type": "function"
    },
    {
      "inputs": [
        {
          "internalType": "bytes4",
          "name": "",
          "type": "bytes4"
        }
      ],
      "name": "supportsInterface",
      "outputs": [
        {
          "internalType": "bool",
          "name": "",
          "type": "bool"
        }
      ],
      "stateMutability": "pure",
      "type": "function"
    }
  ],
  "bytecode": "0x60806040523480156200001157600080fd5b506040516200291f3803806200291f833981810160405260408110156200003757600080fd5b81019080805160405193929190846401000000008211156200005857600080fd5b838201915060208201858111156200006f57600080fd5b82518660018202830111640100000000821117156200008d57600080fd5b8083526020830192505050908051906020019080838360005b83811015620000c3578082015181840152602081019050620000a6565b50505050905090810190601f168015620000f15780820380516001836020036101000a031916815260200191505b50604052602001805160405193929190846401000000008211156200011557600080fd5b838201915060208201858111156200012c57600080fd5b82518660018202830111640100000000821117156200014a57600080fd5b8083526020830192505050908051906020019080838360005b838110156200018057808201518184015260208101905062000163565b50505050905090810190601f168015620001ae5780820380516001836020036101000a031916815260200191505b506040525050508160069080519060200190620001cd929190620001ef565b508060079080519060200190620001e6929190620001ef565b50505062000295565b828054600181600116156101000203166002900490600052602060002090601f016020900481019282601f106200023257805160ff191683800117855562000263565b8280016001018555821562000263579182015b828111156200026257825182559160200191906001019062000245565b5b50905062000272919062000276565b5090565b5b808211156200029157600081600090555060010162000277565b5090565b61267a80620002a56000396000f3fe6080604052600436106101355760003560e01c806355f804b3116100ab57806395d89b411161006f57806395d89b4114610870578063a144819414610900578063a22cb4651461095b578063b88d4fde146109b8578063c87b56dd14610abd578063e985e9c514610b7157610135565b806355f804b31461055c5780636352211e146106245780636c0360eb1461068957806370a08231146107195780638832e6e31461077e57610135565b8063196edda4116100fd578063196edda41461031857806323b872dd146103675780632f745c59146103d557806340c10f191461044457806342842e0e1461049f5780634f6ccce71461050d57610135565b806301ffc9a71461013a57806306fdde03146101aa578063081812fc1461023a578063095ea7b31461029f57806318160ddd146102ed575b600080fd5b34801561014657600080fd5b506101926004803603602081101561015d57600080fd5b8101908080357bffffffffffffffffffffffffffffffffffffffffffffffffffffffff19169060200190929190505050610bf8565b60405180821515815260200191505060405180910390f35b3480156101b657600080fd5b506101bf610c03565b6040518080602001828103825283818151815260200191508051906020019080838360005b838110156101ff5780820151818401526020810190506101e4565b50505050905090810190601f16801561022c5780820380516001836020036101000a031916815260200191505b509250505060405180910390f35b34801561024657600080fd5b506102736004803603602081101561025d57600080fd5b8101908080359060200190929190505050610ca5565b604051808273ffffffffffffffffffffffffffffffffffffffff16815260200191505060405180910390f35b6102eb600480360360408110156102b557600080fd5b81019080803573ffffffffffffffffffffffffffffffffffffffff16906020019092919080359060200190929190505050610d40565b005b3480156102f957600080fd5b50610302610f91565b6040518082815260200191505060405180910390f35b34801561032457600080fd5b506103516004803603602081101561033b57600080fd5b8101908080359060200190929190505050610f9e565b6040518082815260200191505060405180910390f35b6103d36004803603606081101561037d57600080fd5b81019080803573ffffffffffffffffffffffffffffffffffffffff169060200190929190803573ffffffffffffffffffffffffffffffffffffffff16906020019092919080359060200190929190505050610fbb565b005b3480156103e157600080fd5b5061042e600480360360408110156103f857600080fd5b81019080803573ffffffffffffffffffffffffffffffffffffffff16906020019092919080359060200190929190505050611443565b6040518082815260200191505060405180910390f35b34801561045057600080fd5b5061049d6004803603604081101561046757600080fd5b81019080803573ffffffffffffffffffffffffffffffffffffffff169060200190929190803590602001909291905050506114b9565b005b61050b600480360360608110156104b557600080fd5b81019080803573ffffffffffffffffffffffffffffffffffffffff169060200190929190803573ffffffffffffffffffffffffffffffffffffffff16906020019092919080359060200190929190505050611721565b005b34801561051957600080fd5b506105466004803603602081101561053057600080fd5b8101908080359060200190929190505050611755565b6040518082815260200191505060405180910390f35b34801561056857600080fd5b506106226004803603602081101561057f57600080fd5b810190808035906020019064010000000081111561059c57600080fd5b8201836020820111156105ae57600080fd5b803590602001918460018302840111640100000000831117156105d057600080fd5b91908080601f016020809104026020016040519081016040528093929190818152602001838380828437600081840152601f19601f820116905080830192505050505050509192919290505050611776565b005b34801561063057600080fd5b5061065d6004803603602081101561064757600080fd5b8101908080359060200190929190505050611790565b604051808273ffffffffffffffffffffffffffffffffffffffff16815260200191505060405180910390f35b34801561069557600080fd5b5061069e61182b565b6040518080602001828103825283818151815260200191508051906020019080838360005b838110156106de5780820151818401526020810190506106c3565b50505050905090810190601f16801561070b5780820380516001836020036101000a031916815260200191505b509250505060405180910390f35b34801561072557600080fd5b506107686004803603602081101561073c57600080fd5b81019080803573ffffffffffffffffffffffffffffffffffffffff1690602001909291905050506118cd565b6040518082815260200191505060405180910390f35b34801561078a57600080fd5b5061086e600480360360608110156107a157600080fd5b81019080803573ffffffffffffffffffffffffffffffffffffffff16906020019092919080359060200190929190803590602001906401000000008111156107e857600080fd5b8201836020820111156107fa57600080fd5b8035906020019184600183028401116401000000008311171561081c57600080fd5b91908080601f016020809104026020016040519081016040528093929190818152602001838380828437600081840152601f19601f82011690508083019250505050505050919291929050505061199d565b005b34801561087c57600080fd5b506108856119c2565b6040518080602001828103825283818151815260200191508051906020019080838360005b838110156108c55780820151818401526020810190506108aa565b50505050905090810190601f1680156108f25780820380516001836020036101000a031916815260200191505b509250505060405180910390f35b34801561090c57600080fd5b506109596004803603604081101561092357600080fd5b81019080803573ffffffffffffffffffffffffffffffffffffffff16906020019092919080359060200190929190505050611a64565b005b34801561096757600080fd5b506109b66004803603604081101561097e57600080fd5b81019080803573ffffffffffffffffffffffffffffffffffffffff169060200190929190803515159060200190929190505050611a97565b005b610abb600480360360808110156109ce57600080fd5b81019080803573ffffffffffffffffffffffffffffffffffffffff169060200190929190803573ffffffffffffffffffffffffffffffffffffffff1690602001909291908035906020019092919080359060200190640100000000811115610a3557600080fd5b820183602082011115610a4757600080fd5b80359060200191846001830284011164010000000083111715610a6957600080fd5b91908080601f016020809104026020016040519081016040528093929190818152602001838380828437600081840152601f19601f820116905080830192505050505050509192919290505050611c38565b005b348015610ac957600080fd5b50610af660048036036020811015610ae057600080fd5b8101908080359060200190929190505050611c5e565b6040518080602001828103825283818151815260200191508051906020019080838360005b83811015610b36578082015181840152602081019050610b1b565b50505050905090810190601f168015610b635780820380516001836020036101000a031916815260200191505b509250505060405180910390f35b348015610b7d57600080fd5b50610be060048036036040811015610b9457600080fd5b81019080803573ffffffffffffffffffffffffffffffffffffffff169060200190929190803573ffffffffffffffffffffffffffffffffffffffff169060200190929190505050611f47565b60405180821515815260200191505060405180910390f35b600060019050919050565b606060068054600181600116156101000203166002900480601f016020809104026020016040519081016040528092919081815260200182805460018160011615610100020316600290048015610c9b5780601f10610c7057610100808354040283529160200191610c9b565b820191906000526020600020905b815481529060010190602001808311610c7e57829003601f168201915b5050505050905090565b6000610cb082611fdb565b610d05576040517f08c379a000000000000000000000000000000000000000000000000000000000815260040180806020018281038252602c81526020018061251b602c913960400191505060405180910390fd5b6002600083815260200190815260200160002060009054906101000a900473ffffffffffffffffffffffffffffffffffffffff169050919050565b610d4981611fdb565b610d9e576040517f08c379a000000000000000000000000000000000000000000000000000000000815260040180806020018281038252602c81526020018061251b602c913960400191505060405180910390fd5b60006001600083815260200190815260200160002060009054906101000a900473ffffffffffffffffffffffffffffffffffffffff1690503373ffffffffffffffffffffffffffffffffffffffff168173ffffffffffffffffffffffffffffffffffffffff1614610e5a576040517f08c379a000000000000000000000000000000000000000000000000000000000815260040180806020018281038252603881526020018061256b6038913960400191505060405180910390fd5b8273ffffffffffffffffffffffffffffffffffffffff168173ffffffffffffffffffffffffffffffffffffffff161415610edf576040517f08c379a00000000000000000000000000000000000000000000000000000000081526004018080602001828103825260218152602001806125cc6021913960400191505060405180910390fd5b826002600084815260200190815260200160002060006101000a81548173ffffffffffffffffffffffffffffffffffffffff021916908373ffffffffffffffffffffffffffffffffffffffff160217905550818373ffffffffffffffffffffffffffffffffffffffff168273ffffffffffffffffffffffffffffffffffffffff167f8c5be1e5ebec7d5bd14f71427d1e84f3dd0314c0f7b2291e5b200ac8c7c3b92560405160405180910390a4505050565b6000600480549050905090565b600060056000838152602001908152602001600020549050919050565b610fc481611fdb565b611019576040517f08c379a000000000000000000000000000000000000000000000000000000000815260040180806020018281038252602c81526020018061251b602c913960400191505060405180910390fd5b60006001600083815260200190815260200160002060009054906101000a900473ffffffffffffffffffffffffffffffffffffffff169050600033905060008173ffffffffffffffffffffffffffffffffffffffff168373ffffffffffffffffffffffffffffffffffffffff1614806110c557508173ffffffffffffffffffffffffffffffffffffffff166110ad85610ca5565b73ffffffffffffffffffffffffffffffffffffffff16145b806110d657506110d58383611f47565b5b90508061112e576040517f08c379a00000000000000000000000000000000000000000000000000000000081526004018080602001828103825260318152602001806125ed6031913960400191505060405180910390fd5b8573ffffffffffffffffffffffffffffffffffffffff168373ffffffffffffffffffffffffffffffffffffffff16146111b2576040517f08c379a00000000000000000000000000000000000000000000000000000000081526004018080602001828103825260298152602001806125a36029913960400191505060405180910390fd5b600073ffffffffffffffffffffffffffffffffffffffff168573ffffffffffffffffffffffffffffffffffffffff161415611238576040517f08c379a00000000000000000000000000000000000000000000000000000000081526004018080602001828103825260248152602001806125476024913960400191505060405180910390fd5b611243600085610d40565b600061124e876118cd565b905060005b8160ff168160ff16101561132757856000808a73ffffffffffffffffffffffffffffffffffffffff1673ffffffffffffffffffffffffffffffffffffffff1681526020019081526020016000208260ff16815481106112ae57fe5b9060005260206000200154141561131a576000808973ffffffffffffffffffffffffffffffffffffffff1673ffffffffffffffffffffffffffffffffffffffff1681526020019081526020016000208160ff168154811061130b57fe5b90600052602060002001600090555b8080600101915050611253565b506000808773ffffffffffffffffffffffffffffffffffffffff1673ffffffffffffffffffffffffffffffffffffffff168152602001908152602001600020859080600181540180825580915050600190039060005260206000200160009091909190915055856001600087815260200190815260200160002060006101000a81548173ffffffffffffffffffffffffffffffffffffffff021916908373ffffffffffffffffffffffffffffffffffffffff160217905550848673ffffffffffffffffffffffffffffffffffffffff168873ffffffffffffffffffffffffffffffffffffffff167fddf252ad1be2c89b69c2b068fc378daa952ba7f163c4a11628f55a4df523b3ef60405160405180910390a450505050505050565b6000806000808573ffffffffffffffffffffffffffffffffffffffff1673ffffffffffffffffffffffffffffffffffffffff168152602001908152602001600020838154811061148f57fe5b90600052602060002001549050600560008281526020019081526020016000205491505092915050565b600073ffffffffffffffffffffffffffffffffffffffff168273ffffffffffffffffffffffffffffffffffffffff16141561155c576040517f08c379a00000000000000000000000000000000000000000000000000000000081526004018080602001828103825260208152602001807f4552433732313a206d696e7420746f20746865207a65726f206164647265737381525060200191505060405180910390fd5b61156581611fdb565b156115bb576040517f08c379a000000000000000000000000000000000000000000000000000000000815260040180806020018281038252602c81526020018061251b602c913960400191505060405180910390fd5b6000808373ffffffffffffffffffffffffffffffffffffffff1673ffffffffffffffffffffffffffffffffffffffff168152602001908152602001600020819080600181540180825580915050600190039060005260206000200160009091909190915055816001600083815260200190815260200160002060006101000a81548173ffffffffffffffffffffffffffffffffffffffff021916908373ffffffffffffffffffffffffffffffffffffffff160217905550600481908060018154018082558091505060019003906000526020600020016000909190919091505560006001600480549050039050806005600084815260200190815260200160002081905550818373ffffffffffffffffffffffffffffffffffffffff16600073ffffffffffffffffffffffffffffffffffffffff167fddf252ad1be2c89b69c2b068fc378daa952ba7f163c4a11628f55a4df523b3ef60405160405180910390a4505050565b61172c838383610fbb565b61174783838360405180602001604052806000815250612028565b61175057600080fd5b505050565b60006004828154811061176457fe5b90600052602060002001549050919050565b806009908051906020019061178c92919061247d565b5050565b600061179b82611fdb565b6117f0576040517f08c379a000000000000000000000000000000000000000000000000000000000815260040180806020018281038252602c81526020018061251b602c913960400191505060405180910390fd5b6001600083815260200190815260200160002060009054906101000a900473ffffffffffffffffffffffffffffffffffffffff169050919050565b606060098054600181600116156101000203166002900480601f0160208091040260200160405190810160405280929190818152602001828054600181600116156101000203166002900480156118c35780601f10611898576101008083540402835291602001916118c3565b820191906000526020600020905b8154815290600101906020018083116118a657829003601f168201915b5050505050905090565b60008073ffffffffffffffffffffffffffffffffffffffff168273ffffffffffffffffffffffffffffffffffffffff161415611954576040517f08c379a000000000000000000000000000000000000000000000000000000000815260040180806020018281038252602781526020018061261e6027913960400191505060405180910390fd5b6000808373ffffffffffffffffffffffffffffffffffffffff1673ffffffffffffffffffffffffffffffffffffffff168152602001908152602001600020805490509050919050565b6119a783836114b9565b6119b46000848484612028565b6119bd57600080fd5b505050565b606060078054600181600116156101000203166002900480601f016020809104026020016040519081016040528092919081815260200182805460018160011615610100020316600290048015611a5a5780601f10611a2f57610100808354040283529160200191611a5a565b820191906000526020600020905b815481529060010190602001808311611a3d57829003601f168201915b5050505050905090565b611a6e82826114b9565b611a8a6000838360405180602001604052806000815250612028565b611a9357600080fd5b5050565b3373ffffffffffffffffffffffffffffffffffffffff168273ffffffffffffffffffffffffffffffffffffffff161415611b39576040517f08c379a00000000000000000000000000000000000000000000000000000000081526004018080602001828103825260198152602001807f4552433732313a20617070726f766520746f2063616c6c65720000000000000081525060200191505060405180910390fd5b80600360003373ffffffffffffffffffffffffffffffffffffffff1673ffffffffffffffffffffffffffffffffffffffff16815260200190815260200160002060008473ffffffffffffffffffffffffffffffffffffffff1673ffffffffffffffffffffffffffffffffffffffff16815260200190815260200160002060006101000a81548160ff0219169083151502179055508173ffffffffffffffffffffffffffffffffffffffff163373ffffffffffffffffffffffffffffffffffffffff167f17307eab39ab6107e8899845ad3d59bd9653f200f220920489ca2b5937696c318360405180821515815260200191505060405180910390a35050565b611c43848484610fbb565b611c4f84848484612028565b611c5857600080fd5b50505050565b6060611c6982611fdb565b611cbe576040517f08c379a000000000000000000000000000000000000000000000000000000000815260040180806020018281038252602c81526020018061251b602c913960400191505060405180910390fd5b6060600860008481526020019081526020016000208054600181600116156101000203166002900480601f016020809104026020016040519081016040528092919081815260200182805460018160011615610100020316600290048015611d675780601f10611d3c57610100808354040283529160200191611d67565b820191906000526020600020905b815481529060010190602001808311611d4a57829003601f168201915b50505050509050600060098054600181600116156101000203166002900490501415611d965780915050611f42565b600081511115611e6f576009816040516020018083805460018160011615610100020316600290048015611e015780601f10611ddf576101008083540402835291820191611e01565b820191906000526020600020905b815481529060010190602001808311611ded575b505082805190602001908083835b60208310611e325780518252602082019150602081019050602083039250611e0f565b6001836020036101000a03801982511681845116808217855250505050505090500192505050604051602081830303815290604052915050611f42565b6009611e7a84612324565b6040516020018083805460018160011615610100020316600290048015611ed85780601f10611eb6576101008083540402835291820191611ed8565b820191906000526020600020905b815481529060010190602001808311611ec4575b505082805190602001908083835b60208310611f095780518252602082019150602081019050602083039250611ee6565b6001836020036101000a038019825116818451168082178552505050505050905001925050506040516020818303038152906040529150505b919050565b6000600360008473ffffffffffffffffffffffffffffffffffffffff1673ffffffffffffffffffffffffffffffffffffffff16815260200190815260200160002060008373ffffffffffffffffffffffffffffffffffffffff1673ffffffffffffffffffffffffffffffffffffffff16815260200190815260200160002060009054906101000a900460ff16905092915050565b6000806004805490501415611ff35760009050612023565b81600460056000858152602001908152602001600020548154811061201457fe5b90600052602060002001541490505b919050565b60006120338461246a565b612040576001905061231c565b600060608573ffffffffffffffffffffffffffffffffffffffff1633888787604051602401808573ffffffffffffffffffffffffffffffffffffffff1681526020018473ffffffffffffffffffffffffffffffffffffffff16815260200183815260200180602001828103825283818151815260200191508051906020019080838360005b838110156120e05780820151818401526020810190506120c5565b50505050905090810190601f16801561210d5780820380516001836020036101000a031916815260200191505b50955050505050506040516020818303038152906040527f150b7a02000000000000000000000000000000000000000000000000000000007bffffffffffffffffffffffffffffffffffffffffffffffffffffffff19166020820180517bffffffffffffffffffffffffffffffffffffffffffffffffffffffff83818316178352505050506040518082805190602001908083835b602083106121c557805182526020820191506020810190506020830392506121a2565b6001836020036101000a0380198251168184511680821785525050505050509050019150506000604051808303816000865af19150503d8060008114612227576040519150601f19603f3d011682016040523d82523d6000602084013e61222c565b606091505b5091509150816122a4576040517f08c379a00000000000000000000000000000000000000000000000000000000081526004018080602001828103825260108152602001807f6c6f772d6c6576656c2d6661696c65640000000000000000000000000000000081525060200191505060405180910390fd5b60008180602001905160208110156122bb57600080fd5b8101908080519060200190929190505050905063150b7a0260e01b7bffffffffffffffffffffffffffffffffffffffffffffffffffffffff1916817bffffffffffffffffffffffffffffffffffffffffffffffffffffffff19161493505050505b949350505050565b6060600082141561236c576040518060400160405280600181526020017f30000000000000000000000000000000000000000000000000000000000000008152509050612465565b6000808390505b60008114612395578180600101925050600a818161238d57fe5b049050612373565b60608267ffffffffffffffff811180156123ae57600080fd5b506040519080825280601f01601f1916602001820160405280156123e15781602001600182028036833780820191505090505b50905060006001840390508592505b6000831461245d57600a838161240257fe5b0660300160f81b8282806001900393508151811061241c57fe5b60200101907effffffffffffffffffffffffffffffffffffffffffffffffffffffffffffff1916908160001a905350600a838161245557fe5b0492506123f0565b819450505050505b919050565b600080823b905060008111915050919050565b828054600181600116156101000203166002900490600052602060002090601f016020900481019282601f106124be57805160ff19168380011785556124ec565b828001600101855582156124ec579182015b828111156124eb5782518255916020019190600101906124d0565b5b5090506124f991906124fd565b5090565b5b808211156125165760008160009055506001016124fe565b509056fe4552433732313a20617070726f76656420717565727920666f72206e6f6e6578697374616e7420746f6b656e4552433732313a207472616e7366657220746f20746865207a65726f20616464726573734552433732313a20617070726f76652063616c6c6572206973206e6f74206f776e6572206e6f7220617070726f76656420666f7220616c6c4552433732313a207472616e73666572206f6620746f6b656e2074686174206973206e6f74206f776e4552433732313a20617070726f76616c20746f2063757272656e74206f776e65724552433732313a207472616e736665722063616c6c6572206973206e6f74206f776e6572206e6f7220617070726f766564455243373231203a2062616c616e636520717565727920666f72207a65726f2061646472657373a264697066735822122062b2712d50e0b1bb6b7e7e9348112e97c09fec1e0bc50c4278ab373d97850f3864736f6c63430007010033",
  "immutableReferences": {},
  "source": "// SPDX-License-Identifier: MIT\r\npragma solidity >=0.4.22 <0.9.0;\r\n\r\nimport \"./ERC721.sol\";\r\nimport \"./IERC721Enumerable.sol\";\r\nimport \"./IERC721Metadata.sol\";\r\n\r\ncontract ERC721Standard is ERC721,IERC721Enumerable,IERC721Metadata {\r\n    \r\n    mapping(address => uint256[]) private _holderToTokens;\r\n    \r\n    mapping(uint256 => address) private _tokenIdToHolder;\r\n    \r\n    mapping(uint256 => address) private _tokenApprovals;\r\n    \r\n    mapping(address => mapping(address => bool)) private _operatorApprovals;\r\n    \r\n    uint256[] private _tokenIDs;\r\n    \r\n    mapping(uint256 => uint256) private _tokenIDToTokenIndex;\r\n    \r\n    string private _name;\r\n    \r\n    string private _symbol;\r\n    \r\n    mapping(uint256 => string) private _tokenURIs;\r\n    \r\n    bytes4 private constant _ERC721_RECEIVED = 0x150b7a02;\r\n    \r\n    // optional\r\n    string private _baseURI;\r\n    constructor(string memory name_, string memory symbol_) {\r\n        _name = name_;\r\n        _symbol = symbol_;\r\n    }\r\n    \r\n    function name() public view override returns (string memory) {\r\n        return _name;\r\n    }\r\n    \r\n    function symbol() public view override returns (string memory) {\r\n        return _symbol;\r\n    }\r\n    \r\n    function totalSupply() public view override returns(uint256) {\r\n        return _tokenIDs.length;\r\n    }\r\n    \r\n    function baseURI() public view returns(string memory) {\r\n        return _baseURI;\r\n    }\r\n    \r\n    function setBaseURI(string memory baseURI_) public  {\r\n        _baseURI = baseURI_;\r\n    }\r\n    \r\n    function tokenOfOwnerByIndex(address _owner, uint256 _index) public view override returns(uint256 tokenId) {\r\n        uint256 _tokenId = _holderToTokens[_owner][_index];\r\n        return _tokenIDToTokenIndex[_tokenId];\r\n    }\r\n\r\n    function getTokenIndexByTokenID(uint256 _tokenId) public view returns (uint256) {\r\n        return _tokenIDToTokenIndex[_tokenId];\r\n    }\r\n    \r\n    function tokenByIndex(uint256 _index) public view override returns(uint256) {\r\n        return _tokenIDs[_index];\r\n    }\r\n\r\n    function balanceOf(address _owner) public override view returns (uint256) {\r\n        require(_owner != address(0), \"ERC721 : balance query for zero address\");\r\n        return _holderToTokens[_owner].length;\r\n    }\r\n    \r\n    function tokenURI(uint256 _tokenId) public view override returns (string memory) {\r\n        require(_exists(_tokenId),\"ERC721: approved query for nonexistant token\");\r\n        string memory _tokenURI = _tokenURIs[_tokenId];\r\n        \r\n        if(bytes(_baseURI).length == 0) {\r\n            return _tokenURI;\r\n        }\r\n        \r\n        if (bytes(_tokenURI).length > 0) {\r\n            return string(abi.encodePacked(_baseURI,_tokenURI));\r\n        }\r\n        \r\n        return string(abi.encodePacked(_baseURI, _toString(_tokenId)));\r\n    }\r\n    \r\n    function _toString(uint256 _value) internal pure returns (string memory) {\r\n        if (_value == 0) {\r\n            return \"0\";\r\n        }\r\n        \r\n        uint256 _digits;\r\n        uint256 _temp = _value;\r\n        while(_temp != 0) {\r\n            _digits++;\r\n            _temp /= 10;\r\n        }\r\n        \r\n        bytes memory buffer = new bytes(_digits);\r\n        uint256 index = _digits - 1;\r\n        _temp = _value;\r\n        \r\n        while(_temp != 0) {\r\n            buffer[index--] = byte(uint8(48 + _temp % 10));\r\n            _temp /= 10;\r\n        }\r\n        \r\n        return string(buffer);\r\n    }\r\n    \r\n    function ownerOf(uint256 _tokenId) public override view returns (address) {\r\n        require(_exists(_tokenId),\"ERC721: approved query for nonexistant token\");\r\n        return _tokenIdToHolder[_tokenId];\r\n    }\r\n    \r\n    function approve(address _operator, uint256 _tokenId) public override payable {\r\n        require(_exists(_tokenId),\"ERC721: approved query for nonexistant token\");\r\n        address _owner = _tokenIdToHolder[_tokenId];\r\n        require(_owner == msg.sender, \"ERC721: approve caller is not owner nor approved for all\");\r\n        require(_owner != _operator, \"ERC721: approval to current owner\");\r\n        _tokenApprovals[_tokenId] = _operator;\r\n        emit Approval(_owner, _operator, _tokenId);\r\n    }\r\n    \r\n    function getApproved(uint256 _tokenId) public override view returns (address) {\r\n        require(_exists(_tokenId),\"ERC721: approved query for nonexistant token\");\r\n        return _tokenApprovals[_tokenId];    \r\n    }\r\n    \r\n    function setApprovalForAll(address _operator, bool _approved) public override {\r\n        require(_operator != msg.sender, \"ERC721: approve to caller\");\r\n        _operatorApprovals[msg.sender][_operator] = _approved;\r\n        emit ApprovalForAll(msg.sender, _operator, _approved);\r\n    }\r\n    \r\n    function isApprovedForAll(address _owner, address _operator) public override view returns (bool) {\r\n        return _operatorApprovals[_owner][_operator];   \r\n    }\r\n    \r\n    function transferFrom(address _from, address _to, uint256 _tokenId) public override payable {\r\n        require(_exists(_tokenId),\"ERC721: approved query for nonexistant token\");\r\n        // msg.sender should be approved\r\n        address _owner = _tokenIdToHolder[_tokenId];\r\n        address _spender = msg.sender;\r\n        bool _isApprovedOrOwner = (_owner  == _spender || getApproved(_tokenId) == _spender || isApprovedForAll(_owner, _spender));\r\n        require(_isApprovedOrOwner, \"ERC721: transfer caller is not owner nor approved\");\r\n        \r\n        require(_owner == _from, \"ERC721: transfer of token that is not own\");\r\n        require(_to != address(0), \"ERC721: transfer to the zero address\");\r\n        \r\n        // clear approvals from previous owner\r\n        approve(address(0), _tokenId);\r\n        \r\n        // remove _from from _holderToTokens\r\n        uint8 _len = uint8(balanceOf(_from));\r\n        for(uint8 _i = 0 ; _i < _len ; _i++) {\r\n            if(_holderToTokens[_from][_i] == _tokenId) {\r\n                delete _holderToTokens[_from][_i];\r\n            }            \r\n        }\r\n        \r\n        // add _to from _holderToTokens\r\n        _holderToTokens[_to].push(_tokenId);\r\n        _tokenIdToHolder[_tokenId] = _to;\r\n        // emit event\r\n        emit Transfer(_from, _to, _tokenId);\r\n    }\r\n    \r\n    function safeTransferFrom(address _from, address _to, uint256 _tokenId, bytes memory _data) public override payable {\r\n        transferFrom(_from,  _to,  _tokenId);\r\n        require(_checkOnERC721Received(_from, _to, _tokenId, _data));\r\n    }\r\n    \r\n    function safeTransferFrom(address _from, address _to, uint256 _tokenId) public override payable {\r\n        transferFrom(_from, _to, _tokenId);\r\n        require(_checkOnERC721Received(_from, _to, _tokenId, \"\"));\r\n    }\r\n    \r\n    function safeMint(address _to, uint256 _tokenId) public {\r\n        mint(_to, _tokenId);\r\n        require(_checkOnERC721Received(address(0), _to, _tokenId, \"\"));\r\n    }\r\n    \r\n    function safeMint(address _to, uint256 _tokenId, bytes memory data) public {\r\n        mint(_to, _tokenId);\r\n        require(_checkOnERC721Received(address(0), _to, _tokenId, data));\r\n    }\r\n    \r\n    function mint(address _to, uint256 _tokenId) public {\r\n        require(_to != address(0), \"ERC721: mint to the zero address\");\r\n        require(!_exists(_tokenId),\"ERC721: approved query for nonexistant token\");\r\n        \r\n        _holderToTokens[_to].push(_tokenId);\r\n        _tokenIdToHolder[_tokenId] = _to;\r\n        _tokenIDs.push(_tokenId);\r\n        uint _index = _tokenIDs.length - 1;\r\n        _tokenIDToTokenIndex[_tokenId] = _index;\r\n        \r\n        emit Transfer(address(0), _to, _tokenId);\r\n    }\r\n    \r\n    function _checkOnERC721Received(address _from, address _to, uint256 _tokenId, bytes memory _data) private returns (bool) {\r\n        if (!isContract(_to)) {\r\n            return true;\r\n        }\r\n        \r\n        (bool _success, bytes memory _returnData) = _to.call(\r\n            abi.encodeWithSignature(\"onERC721Received(address,address,uint256,bytes)\", msg.sender, _from, _tokenId, _data));\r\n        require(_success,\"low-level-failed\");\r\n        bytes4 _retVal = abi.decode(_returnData, (bytes4));\r\n        return (_retVal == _ERC721_RECEIVED);\r\n    }\r\n    \r\n    function _exists(uint256 _tokenId) internal view returns(bool) {\r\n        if(_tokenIDs.length == 0) {\r\n            return false;\r\n        }\r\n        \r\n        return (_tokenIDs[_tokenIDToTokenIndex[_tokenId]] == _tokenId);\r\n    }\r\n    \r\n    function isContract(address _account) internal view returns (bool) {\r\n        uint256 _size;\r\n        assembly { _size := extcodesize(_account)}\r\n        return _size > 0;\r\n    }\r\n    \r\n    function supportsInterface(bytes4) public override pure returns (bool){\r\n        return true;\r\n    }\r\n}",
  "sourcePath": "C:\\work\\blockchain_course\\semester2\\smart_contract_essentials\\final_project\\contracts\\ERC721Standard.sol",
  "compiler": {
    "name": "solc",
    "version": "0.7.1+commit.f4a555be.Emscripten.clang"
  },
  "schemaVersion": "3.3.3",
  "updatedAt": "2021-01-31T00:45:17.572Z",
  "devdoc": {
    "kind": "dev",
    "methods": {
      "balanceOf(address)": {
        "details": "NFTs assigned to the zero address are considered invalid, and this  function throws for queries about the zero address.",
        "params": {
          "_owner": "An address for whom to query the balance"
        },
        "returns": {
          "_0": "The number of NFTs owned by `_owner`, possibly zero"
        }
      },
      "getApproved(uint256)": {
        "details": "Throws if `_tokenId` is not a valid NFT.",
        "params": {
          "_tokenId": "The NFT to find the approved address for"
        },
        "returns": {
          "_0": "The approved address for this NFT, or the zero address if there is none"
        }
      },
      "isApprovedForAll(address,address)": {
        "params": {
          "_operator": "The address that acts on behalf of the owner",
          "_owner": "The address that owns the NFTs"
        },
        "returns": {
          "_0": "True if `_operator` is an approved operator for `_owner`, false otherwise"
        }
      },
      "ownerOf(uint256)": {
        "details": "NFTs assigned to zero address are considered invalid, and queries  about them do throw.",
        "params": {
          "_tokenId": "The identifier for an NFT"
        },
        "returns": {
          "_0": "The address of the owner of the NFT"
        }
      },
      "safeTransferFrom(address,address,uint256)": {
        "details": "This works identically to the other function with an extra data parameter,  except this function just sets data to \"\".",
        "params": {
          "_from": "The current owner of the NFT",
          "_to": "The new owner",
          "_tokenId": "The NFT to transfer"
        }
      },
      "setApprovalForAll(address,bool)": {
        "details": "Emits the ApprovalForAll event. The contract MUST allow  multiple operators per owner.",
        "params": {
          "_approved": "True if the operator is approved, false to revoke approval",
          "_operator": "Address to add to the set of authorized operators"
        }
      },
      "transferFrom(address,address,uint256)": {
        "details": "Throws unless `msg.sender` is the current owner, an authorized  operator, or the approved address for this NFT. Throws if `_from` is  not the current owner. Throws if `_to` is the zero address. Throws if  `_tokenId` is not a valid NFT.",
        "params": {
          "_from": "The current owner of the NFT",
          "_to": "The new owner",
          "_tokenId": "The NFT to transfer"
        }
      }
    },
    "version": 1
  },
  "userdoc": {
    "kind": "user",
    "methods": {
      "balanceOf(address)": {
        "notice": "Count all NFTs assigned to an owner"
      },
      "getApproved(uint256)": {
        "notice": "Get the approved address for a single NFT"
      },
      "isApprovedForAll(address,address)": {
        "notice": "Query if an address is an authorized operator for another address"
      },
      "ownerOf(uint256)": {
        "notice": "Find the owner of an NFT"
      },
      "safeTransferFrom(address,address,uint256)": {
        "notice": "Transfers the ownership of an NFT from one address to another address"
      },
      "setApprovalForAll(address,bool)": {
        "notice": "Enable or disable approval for a third party (\"operator\") to manage  all of `msg.sender`'s assets"
      },
      "transferFrom(address,address,uint256)": {
        "notice": "Transfer ownership of an NFT -- THE CALLER IS RESPONSIBLE  TO CONFIRM THAT `_to` IS CAPABLE OF RECEIVING NFTS OR ELSE  THEY MAY BE PERMANENTLY LOST"
      }
    },
    "version": 1
  }
}