{
  "contractName": "SparklesToken",
  "abi": [
    {
      "inputs": [
        {
          "internalType": "string",
          "name": "_name",
          "type": "string"
        },
        {
          "internalType": "string",
          "name": "_symbol",
          "type": "string"
        }
      ],
      "stateMutability": "nonpayable",
      "type": "constructor"
    },
    {
      "anonymous": false,
      "inputs": [
        {
          "indexed": true,
          "internalType": "address",
          "name": "_owner",
          "type": "address"
        },
        {
          "indexed": true,
          "internalType": "address",
          "name": "_approved",
          "type": "address"
        },
        {
          "indexed": true,
          "internalType": "uint256",
          "name": "_tokenId",
          "type": "uint256"
        }
      ],
      "name": "Approval",
      "type": "event"
    },
    {
      "anonymous": false,
      "inputs": [
        {
          "indexed": true,
          "internalType": "address",
          "name": "_owner",
          "type": "address"
        },
        {
          "indexed": true,
          "internalType": "address",
          "name": "_operator",
          "type": "address"
        },
        {
          "indexed": false,
          "internalType": "bool",
          "name": "_approved",
          "type": "bool"
        }
      ],
      "name": "ApprovalForAll",
      "type": "event"
    },
    {
      "anonymous": false,
      "inputs": [
        {
          "indexed": true,
          "internalType": "address",
          "name": "_from",
          "type": "address"
        },
        {
          "indexed": true,
          "internalType": "address",
          "name": "_to",
          "type": "address"
        },
        {
          "indexed": true,
          "internalType": "uint256",
          "name": "_tokenId",
          "type": "uint256"
        }
      ],
      "name": "Transfer",
      "type": "event"
    },
    {
      "inputs": [
        {
          "internalType": "address",
          "name": "_operator",
          "type": "address"
        },
        {
          "internalType": "uint256",
          "name": "_tokenId",
          "type": "uint256"
        }
      ],
      "name": "approve",
      "outputs": [],
      "stateMutability": "payable",
      "type": "function"
    },
    {
      "inputs": [
        {
          "internalType": "address",
          "name": "_owner",
          "type": "address"
        }
      ],
      "name": "balanceOf",
      "outputs": [
        {
          "internalType": "uint256",
          "name": "",
          "type": "uint256"
        }
      ],
      "stateMutability": "view",
      "type": "function"
    },
    {
      "inputs": [],
      "name": "baseURI",
      "outputs": [
        {
          "internalType": "string",
          "name": "",
          "type": "string"
        }
      ],
      "stateMutability": "view",
      "type": "function"
    },
    {
      "inputs": [
        {
          "internalType": "uint256",
          "name": "_tokenId",
          "type": "uint256"
        }
      ],
      "name": "getApproved",
      "outputs": [
        {
          "internalType": "address",
          "name": "",
          "type": "address"
        }
      ],
      "stateMutability": "view",
      "type": "function"
    },
    {
      "inputs": [
        {
          "internalType": "uint256",
          "name": "_tokenId",
          "type": "uint256"
        }
      ],
      "name": "getTokenIndexByTokenID",
      "outputs": [
        {
          "internalType": "uint256",
          "name": "",
          "type": "uint256"
        }
      ],
      "stateMutability": "view",
      "type": "function"
    },
    {
      "inputs": [
        {
          "internalType": "uint256",
          "name": "",
          "type": "uint256"
        }
      ],
      "name": "idToOwner",
      "outputs": [
        {
          "internalType": "address",
          "name": "",
          "type": "address"
        }
      ],
      "stateMutability": "view",
      "type": "function"
    },
    {
      "inputs": [
        {
          "internalType": "address",
          "name": "_owner",
          "type": "address"
        },
        {
          "internalType": "address",
          "name": "_operator",
          "type": "address"
        }
      ],
      "name": "isApprovedForAll",
      "outputs": [
        {
          "internalType": "bool",
          "name": "",
          "type": "bool"
        }
      ],
      "stateMutability": "view",
      "type": "function"
    },
    {
      "inputs": [
        {
          "internalType": "uint256",
          "name": "",
          "type": "uint256"
        }
      ],
      "name": "jewels",
      "outputs": [
        {
          "internalType": "uint256",
          "name": "token_id",
          "type": "uint256"
        },
        {
          "internalType": "string",
          "name": "name",
          "type": "string"
        },
        {
          "internalType": "string",
          "name": "description",
          "type": "string"
        },
        {
          "internalType": "uint256",
          "name": "price",
          "type": "uint256"
        },
        {
          "internalType": "string",
          "name": "date",
          "type": "string"
        },
        {
          "internalType": "address payable",
          "name": "owner",
          "type": "address"
        },
        {
          "internalType": "string",
          "name": "image_url",
          "type": "string"
        },
        {
          "internalType": "uint256",
          "name": "rarity",
          "type": "uint256"
        },
        {
          "internalType": "string",
          "name": "location",
          "type": "string"
        }
      ],
      "stateMutability": "view",
      "type": "function"
    },
    {
      "inputs": [
        {
          "internalType": "address",
          "name": "_to",
          "type": "address"
        },
        {
          "internalType": "uint256",
          "name": "_tokenId",
          "type": "uint256"
        }
      ],
      "name": "mint",
      "outputs": [],
      "stateMutability": "nonpayable",
      "type": "function"
    },
    {
      "inputs": [],
      "name": "name",
      "outputs": [
        {
          "internalType": "string",
          "name": "",
          "type": "string"
        }
      ],
      "stateMutability": "view",
      "type": "function"
    },
    {
      "inputs": [],
      "name": "notSoldJewels",
      "outputs": [
        {
          "internalType": "uint256",
          "name": "",
          "type": "uint256"
        }
      ],
      "stateMutability": "view",
      "type": "function"
    },
    {
      "inputs": [
        {
          "internalType": "uint256",
          "name": "_tokenId",
          "type": "uint256"
        }
      ],
      "name": "ownerOf",
      "outputs": [
        {
          "internalType": "address",
          "name": "",
          "type": "address"
        }
      ],
      "stateMutability": "view",
      "type": "function"
    },
    {
      "inputs": [
        {
          "internalType": "address",
          "name": "_to",
          "type": "address"
        },
        {
          "internalType": "uint256",
          "name": "_tokenId",
          "type": "uint256"
        },
        {
          "internalType": "bytes",
          "name": "data",
          "type": "bytes"
        }
      ],
      "name": "safeMint",
      "outputs": [],
      "stateMutability": "nonpayable",
      "type": "function"
    },
    {
      "inputs": [
        {
          "internalType": "address",
          "name": "_to",
          "type": "address"
        },
        {
          "internalType": "uint256",
          "name": "_tokenId",
          "type": "uint256"
        }
      ],
      "name": "safeMint",
      "outputs": [],
      "stateMutability": "nonpayable",
      "type": "function"
    },
    {
      "inputs": [
        {
          "internalType": "address",
          "name": "_from",
          "type": "address"
        },
        {
          "internalType": "address",
          "name": "_to",
          "type": "address"
        },
        {
          "internalType": "uint256",
          "name": "_tokenId",
          "type": "uint256"
        }
      ],
      "name": "safeTransferFrom",
      "outputs": [],
      "stateMutability": "payable",
      "type": "function"
    },
    {
      "inputs": [
        {
          "internalType": "address",
          "name": "_from",
          "type": "address"
        },
        {
          "internalType": "address",
          "name": "_to",
          "type": "address"
        },
        {
          "internalType": "uint256",
          "name": "_tokenId",
          "type": "uint256"
        },
        {
          "internalType": "bytes",
          "name": "_data",
          "type": "bytes"
        }
      ],
      "name": "safeTransferFrom",
      "outputs": [],
      "stateMutability": "payable",
      "type": "function"
    },
    {
      "inputs": [
        {
          "internalType": "address",
          "name": "_operator",
          "type": "address"
        },
        {
          "internalType": "bool",
          "name": "_approved",
          "type": "bool"
        }
      ],
      "name": "setApprovalForAll",
      "outputs": [],
      "stateMutability": "nonpayable",
      "type": "function"
    },
    {
      "inputs": [
        {
          "internalType": "string",
          "name": "baseURI_",
          "type": "string"
        }
      ],
      "name": "setBaseURI",
      "outputs": [],
      "stateMutability": "nonpayable",
      "type": "function"
    },
    {
      "inputs": [
        {
          "internalType": "bytes4",
          "name": "",
          "type": "bytes4"
        }
      ],
      "name": "supportsInterface",
      "outputs": [
        {
          "internalType": "bool",
          "name": "",
          "type": "bool"
        }
      ],
      "stateMutability": "pure",
      "type": "function"
    },
    {
      "inputs": [],
      "name": "symbol",
      "outputs": [
        {
          "internalType": "string",
          "name": "",
          "type": "string"
        }
      ],
      "stateMutability": "view",
      "type": "function"
    },
    {
      "inputs": [
        {
          "internalType": "uint256",
          "name": "_index",
          "type": "uint256"
        }
      ],
      "name": "tokenByIndex",
      "outputs": [
        {
          "internalType": "uint256",
          "name": "",
          "type": "uint256"
        }
      ],
      "stateMutability": "view",
      "type": "function"
    },
    {
      "inputs": [
        {
          "internalType": "address",
          "name": "_owner",
          "type": "address"
        },
        {
          "internalType": "uint256",
          "name": "_index",
          "type": "uint256"
        }
      ],
      "name": "tokenOfOwnerByIndex",
      "outputs": [
        {
          "internalType": "uint256",
          "name": "tokenId",
          "type": "uint256"
        }
      ],
      "stateMutability": "view",
      "type": "function"
    },
    {
      "inputs": [
        {
          "internalType": "uint256",
          "name": "_tokenId",
          "type": "uint256"
        }
      ],
      "name": "tokenURI",
      "outputs": [
        {
          "internalType": "string",
          "name": "",
          "type": "string"
        }
      ],
      "stateMutability": "view",
      "type": "function"
    },
    {
      "inputs": [],
      "name": "totalSupply",
      "outputs": [
        {
          "internalType": "uint256",
          "name": "",
          "type": "uint256"
        }
      ],
      "stateMutability": "view",
      "type": "function"
    },
    {
      "inputs": [
        {
          "internalType": "address",
          "name": "_from",
          "type": "address"
        },
        {
          "internalType": "address",
          "name": "_to",
          "type": "address"
        },
        {
          "internalType": "uint256",
          "name": "_tokenId",
          "type": "uint256"
        }
      ],
      "name": "transferFrom",
      "outputs": [],
      "stateMutability": "payable",
      "type": "function"
    },
    {
      "inputs": [
        {
          "internalType": "string",
          "name": "_name",
          "type": "string"
        },
        {
          "internalType": "string",
          "name": "_description",
          "type": "string"
        },
        {
          "internalType": "string",
          "name": "_date",
          "type": "string"
        },
        {
          "internalType": "uint256",
          "name": "_price",
          "type": "uint256"
        },
        {
          "internalType": "string",
          "name": "_image_url",
          "type": "string"
        },
        {
          "internalType": "uint256",
          "name": "_rarity",
          "type": "uint256"
        },
        {
          "internalType": "string",
          "name": "_location",
          "type": "string"
        },
        {
          "internalType": "address payable",
          "name": "_owner",
          "type": "address"
        }
      ],
      "name": "createToken",
      "outputs": [],
      "stateMutability": "nonpayable",
      "type": "function"
    },
    {
      "inputs": [
        {
          "internalType": "uint256",
          "name": "token_id",
          "type": "uint256"
        }
      ],
      "name": "buyToken",
      "outputs": [],
      "stateMutability": "payable",
      "type": "function"
    }
  ],
  "bytecode": "0x60806040523480156200001157600080fd5b506040516200455038038062004550833981810160405260408110156200003757600080fd5b81019080805160405193929190846401000000008211156200005857600080fd5b838201915060208201858111156200006f57600080fd5b82518660018202830111640100000000821117156200008d57600080fd5b8083526020830192505050908051906020019080838360005b83811015620000c3578082015181840152602081019050620000a6565b50505050905090810190601f168015620000f15780820380516001836020036101000a031916815260200191505b50604052602001805160405193929190846401000000008211156200011557600080fd5b838201915060208201858111156200012c57600080fd5b82518660018202830111640100000000821117156200014a57600080fd5b8083526020830192505050908051906020019080838360005b838110156200018057808201518184015260208101905062000163565b50505050905090810190601f168015620001ae5780820380516001836020036101000a031916815260200191505b5060405250505081818160069080519060200190620001cf929190620007c0565b508060079080519060200190620001e8929190620007c0565b5050506000339050620001fa62000847565b604051806101200160405280600c5481526020016040518060400160405280600881526020017f536170686972726500000000000000000000000000000000000000000000000081525081526020016040518060400160405280600881526020017f53617068697272650000000000000000000000000000000000000000000000008152508152602001606481526020016040518060400160405280600a81526020017f31322d31322d323032300000000000000000000000000000000000000000000081525081526020018373ffffffffffffffffffffffffffffffffffffffff1681526020016040518060400160405280601181526020017f687474703a2f2f676f6f676c652e636f6d0000000000000000000000000000008152508152602001606481526020016040518060400160405280600681526020017f4c6f6e646f6e0000000000000000000000000000000000000000000000000000815250815250905080600e6000600c5481526020019081526020016000206000820151816000015560208201518160010190805190602001906200039d929190620007c0565b506040820151816002019080519060200190620003bc929190620007c0565b50606082015181600301556080820151816004019080519060200190620003e5929190620007c0565b5060a08201518160050160006101000a81548173ffffffffffffffffffffffffffffffffffffffff021916908373ffffffffffffffffffffffffffffffffffffffff16021790555060c08201518160060190805190602001906200044b929190620007c0565b5060e0820151816007015561010082015181600801908051906020019062000475929190620007c0565b509050506200048d82600c54620004fd60201b60201c565b81600d6000600c54815260200190815260200160002060006101000a81548173ffffffffffffffffffffffffffffffffffffffff021916908373ffffffffffffffffffffffffffffffffffffffff160217905550600c6000815480929190600101919050555050505050620008c8565b600073ffffffffffffffffffffffffffffffffffffffff168273ffffffffffffffffffffffffffffffffffffffff161415620005a1576040517f08c379a00000000000000000000000000000000000000000000000000000000081526004018080602001828103825260208152602001807f4552433732313a206d696e7420746f20746865207a65726f206164647265737381525060200191505060405180910390fd5b620005b2816200077060201b60201c565b156200060a576040517f08c379a000000000000000000000000000000000000000000000000000000000815260040180806020018281038252602c81526020018062004524602c913960400191505060405180910390fd5b6000808373ffffffffffffffffffffffffffffffffffffffff1673ffffffffffffffffffffffffffffffffffffffff168152602001908152602001600020819080600181540180825580915050600190039060005260206000200160009091909190915055816001600083815260200190815260200160002060006101000a81548173ffffffffffffffffffffffffffffffffffffffff021916908373ffffffffffffffffffffffffffffffffffffffff160217905550600481908060018154018082558091505060019003906000526020600020016000909190919091505560006001600480549050039050806005600084815260200190815260200160002081905550818373ffffffffffffffffffffffffffffffffffffffff16600073ffffffffffffffffffffffffffffffffffffffff167fddf252ad1be2c89b69c2b068fc378daa952ba7f163c4a11628f55a4df523b3ef60405160405180910390a4505050565b60008060048054905014156200078a5760009050620007bb565b816004600560008581526020019081526020016000205481548110620007ac57fe5b90600052602060002001541490505b919050565b828054600181600116156101000203166002900490600052602060002090601f016020900481019282601f106200080357805160ff191683800117855562000834565b8280016001018555821562000834579182015b828111156200083357825182559160200191906001019062000816565b5b509050620008439190620008a9565b5090565b6040518061012001604052806000815260200160608152602001606081526020016000815260200160608152602001600073ffffffffffffffffffffffffffffffffffffffff1681526020016060815260200160008152602001606081525090565b5b80821115620008c4576000816000905550600101620008aa565b5090565b613c4c80620008d86000396000f3fe60806040526004361061019c5760003560e01c80636352211e116100ec578063a22cb4651161008a578063b9dd2f1911610064578063b9dd2f1914611141578063bfc206ed1461116c578063c87b56dd146111d1578063e985e9c5146112855761019c565b8063a22cb46514610d49578063b70de7dd14610da6578063b88d4fde1461103c5761019c565b80638832e6e3116100c65780638832e6e3146108135780638c80874f1461090557806395d89b4114610c5e578063a144819414610cee5761019c565b80636352211e146106b95780636c0360eb1461071e57806370a08231146107ae5761019c565b806323b872dd1161015957806340c10f191161013357806340c10f19146104d957806342842e0e146105345780634f6ccce7146105a257806355f804b3146105f15761019c565b806323b872dd146103ce5780632d296bf11461043c5780632f745c591461046a5761019c565b806301ffc9a7146101a157806306fdde0314610211578063081812fc146102a1578063095ea7b31461030657806318160ddd14610354578063196edda41461037f575b600080fd5b3480156101ad57600080fd5b506101f9600480360360208110156101c457600080fd5b8101908080357bffffffffffffffffffffffffffffffffffffffffffffffffffffffff1916906020019092919050505061130c565b60405180821515815260200191505060405180910390f35b34801561021d57600080fd5b50610226611317565b6040518080602001828103825283818151815260200191508051906020019080838360005b8381101561026657808201518184015260208101905061024b565b50505050905090810190601f1680156102935780820380516001836020036101000a031916815260200191505b509250505060405180910390f35b3480156102ad57600080fd5b506102da600480360360208110156102c457600080fd5b81019080803590602001909291905050506113b9565b604051808273ffffffffffffffffffffffffffffffffffffffff16815260200191505060405180910390f35b6103526004803603604081101561031c57600080fd5b81019080803573ffffffffffffffffffffffffffffffffffffffff16906020019092919080359060200190929190505050611454565b005b34801561036057600080fd5b506103696116a5565b6040518082815260200191505060405180910390f35b34801561038b57600080fd5b506103b8600480360360208110156103a257600080fd5b81019080803590602001909291905050506116b2565b6040518082815260200191505060405180910390f35b61043a600480360360608110156103e457600080fd5b81019080803573ffffffffffffffffffffffffffffffffffffffff169060200190929190803573ffffffffffffffffffffffffffffffffffffffff169060200190929190803590602001909291905050506116cf565b005b6104686004803603602081101561045257600080fd5b8101908080359060200190929190505050611b57565b005b34801561047657600080fd5b506104c36004803603604081101561048d57600080fd5b81019080803573ffffffffffffffffffffffffffffffffffffffff169060200190929190803590602001909291905050506120c7565b6040518082815260200191505060405180910390f35b3480156104e557600080fd5b50610532600480360360408110156104fc57600080fd5b81019080803573ffffffffffffffffffffffffffffffffffffffff1690602001909291908035906020019092919050505061213d565b005b6105a06004803603606081101561054a57600080fd5b81019080803573ffffffffffffffffffffffffffffffffffffffff169060200190929190803573ffffffffffffffffffffffffffffffffffffffff169060200190929190803590602001909291905050506123a5565b005b3480156105ae57600080fd5b506105db600480360360208110156105c557600080fd5b81019080803590602001909291905050506123d9565b6040518082815260200191505060405180910390f35b3480156105fd57600080fd5b506106b76004803603602081101561061457600080fd5b810190808035906020019064010000000081111561063157600080fd5b82018360208201111561064357600080fd5b8035906020019184600183028401116401000000008311171561066557600080fd5b91908080601f016020809104026020016040519081016040528093929190818152602001838380828437600081840152601f19601f8201169050808301925050505050505091929192905050506123fa565b005b3480156106c557600080fd5b506106f2600480360360208110156106dc57600080fd5b8101908080359060200190929190505050612414565b604051808273ffffffffffffffffffffffffffffffffffffffff16815260200191505060405180910390f35b34801561072a57600080fd5b506107336124af565b6040518080602001828103825283818151815260200191508051906020019080838360005b83811015610773578082015181840152602081019050610758565b50505050905090810190601f1680156107a05780820380516001836020036101000a031916815260200191505b509250505060405180910390f35b3480156107ba57600080fd5b506107fd600480360360208110156107d157600080fd5b81019080803573ffffffffffffffffffffffffffffffffffffffff169060200190929190505050612551565b6040518082815260200191505060405180910390f35b34801561081f57600080fd5b506109036004803603606081101561083657600080fd5b81019080803573ffffffffffffffffffffffffffffffffffffffff169060200190929190803590602001909291908035906020019064010000000081111561087d57600080fd5b82018360208201111561088f57600080fd5b803590602001918460018302840111640100000000831117156108b157600080fd5b91908080601f016020809104026020016040519081016040528093929190818152602001838380828437600081840152601f19601f820116905080830192505050505050509192919290505050612621565b005b34801561091157600080fd5b50610c5c600480360361010081101561092957600080fd5b810190808035906020019064010000000081111561094657600080fd5b82018360208201111561095857600080fd5b8035906020019184600183028401116401000000008311171561097a57600080fd5b91908080601f016020809104026020016040519081016040528093929190818152602001838380828437600081840152601f19601f820116905080830192505050505050509192919290803590602001906401000000008111156109dd57600080fd5b8201836020820111156109ef57600080fd5b80359060200191846001830284011164010000000083111715610a1157600080fd5b91908080601f016020809104026020016040519081016040528093929190818152602001838380828437600081840152601f19601f82011690508083019250505050505050919291929080359060200190640100000000811115610a7457600080fd5b820183602082011115610a8657600080fd5b80359060200191846001830284011164010000000083111715610aa857600080fd5b91908080601f016020809104026020016040519081016040528093929190818152602001838380828437600081840152601f19601f8201169050808301925050505050505091929192908035906020019092919080359060200190640100000000811115610b1557600080fd5b820183602082011115610b2757600080fd5b80359060200191846001830284011164010000000083111715610b4957600080fd5b91908080601f016020809104026020016040519081016040528093929190818152602001838380828437600081840152601f19601f8201169050808301925050505050505091929192908035906020019092919080359060200190640100000000811115610bb657600080fd5b820183602082011115610bc857600080fd5b80359060200191846001830284011164010000000083111715610bea57600080fd5b91908080601f016020809104026020016040519081016040528093929190818152602001838380828437600081840152601f19601f820116905080830192505050505050509192919290803573ffffffffffffffffffffffffffffffffffffffff169060200190929190505050612646565b005b348015610c6a57600080fd5b50610c73612b93565b6040518080602001828103825283818151815260200191508051906020019080838360005b83811015610cb3578082015181840152602081019050610c98565b50505050905090810190601f168015610ce05780820380516001836020036101000a031916815260200191505b509250505060405180910390f35b348015610cfa57600080fd5b50610d4760048036036040811015610d1157600080fd5b81019080803573ffffffffffffffffffffffffffffffffffffffff16906020019092919080359060200190929190505050612c35565b005b348015610d5557600080fd5b50610da460048036036040811015610d6c57600080fd5b81019080803573ffffffffffffffffffffffffffffffffffffffff169060200190929190803515159060200190929190505050612c68565b005b348015610db257600080fd5b50610ddf60048036036020811015610dc957600080fd5b8101908080359060200190929190505050612e09565b604051808a81526020018060200180602001898152602001806020018873ffffffffffffffffffffffffffffffffffffffff168152602001806020018781526020018060200186810386528e818151815260200191508051906020019080838360005b83811015610e5d578082015181840152602081019050610e42565b50505050905090810190601f168015610e8a5780820380516001836020036101000a031916815260200191505b5086810385528d818151815260200191508051906020019080838360005b83811015610ec3578082015181840152602081019050610ea8565b50505050905090810190601f168015610ef05780820380516001836020036101000a031916815260200191505b5086810384528b818151815260200191508051906020019080838360005b83811015610f29578082015181840152602081019050610f0e565b50505050905090810190601f168015610f565780820380516001836020036101000a031916815260200191505b50868103835289818151815260200191508051906020019080838360005b83811015610f8f578082015181840152602081019050610f74565b50505050905090810190601f168015610fbc5780820380516001836020036101000a031916815260200191505b50868103825287818151815260200191508051906020019080838360005b83811015610ff5578082015181840152602081019050610fda565b50505050905090810190601f1680156110225780820380516001836020036101000a031916815260200191505b509e50505050505050505050505050505060405180910390f35b61113f6004803603608081101561105257600080fd5b81019080803573ffffffffffffffffffffffffffffffffffffffff169060200190929190803573ffffffffffffffffffffffffffffffffffffffff16906020019092919080359060200190929190803590602001906401000000008111156110b957600080fd5b8201836020820111156110cb57600080fd5b803590602001918460018302840111640100000000831117156110ed57600080fd5b91908080601f016020809104026020016040519081016040528093929190818152602001838380828437600081840152601f19601f82011690508083019250505050505050919291929050505061316f565b005b34801561114d57600080fd5b50611156613195565b6040518082815260200191505060405180910390f35b34801561117857600080fd5b506111a56004803603602081101561118f57600080fd5b810190808035906020019092919050505061319b565b604051808273ffffffffffffffffffffffffffffffffffffffff16815260200191505060405180910390f35b3480156111dd57600080fd5b5061120a600480360360208110156111f457600080fd5b81019080803590602001909291905050506131ce565b6040518080602001828103825283818151815260200191508051906020019080838360005b8381101561124a57808201518184015260208101905061122f565b50505050905090810190601f1680156112775780820380516001836020036101000a031916815260200191505b509250505060405180910390f35b34801561129157600080fd5b506112f4600480360360408110156112a857600080fd5b81019080803573ffffffffffffffffffffffffffffffffffffffff169060200190929190803573ffffffffffffffffffffffffffffffffffffffff1690602001909291905050506134b7565b60405180821515815260200191505060405180910390f35b600060019050919050565b606060068054600181600116156101000203166002900480601f0160208091040260200160405190810160405280929190818152602001828054600181600116156101000203166002900480156113af5780601f10611384576101008083540402835291602001916113af565b820191906000526020600020905b81548152906001019060200180831161139257829003601f168201915b5050505050905090565b60006113c48261354b565b611419576040517f08c379a000000000000000000000000000000000000000000000000000000000815260040180806020018281038252602c815260200180613aed602c913960400191505060405180910390fd5b6002600083815260200190815260200160002060009054906101000a900473ffffffffffffffffffffffffffffffffffffffff169050919050565b61145d8161354b565b6114b2576040517f08c379a000000000000000000000000000000000000000000000000000000000815260040180806020018281038252602c815260200180613aed602c913960400191505060405180910390fd5b60006001600083815260200190815260200160002060009054906101000a900473ffffffffffffffffffffffffffffffffffffffff1690503373ffffffffffffffffffffffffffffffffffffffff168173ffffffffffffffffffffffffffffffffffffffff161461156e576040517f08c379a0000000000000000000000000000000000000000000000000000000008152600401808060200182810382526038815260200180613b3d6038913960400191505060405180910390fd5b8273ffffffffffffffffffffffffffffffffffffffff168173ffffffffffffffffffffffffffffffffffffffff1614156115f3576040517f08c379a0000000000000000000000000000000000000000000000000000000008152600401808060200182810382526021815260200180613b9e6021913960400191505060405180910390fd5b826002600084815260200190815260200160002060006101000a81548173ffffffffffffffffffffffffffffffffffffffff021916908373ffffffffffffffffffffffffffffffffffffffff160217905550818373ffffffffffffffffffffffffffffffffffffffff168273ffffffffffffffffffffffffffffffffffffffff167f8c5be1e5ebec7d5bd14f71427d1e84f3dd0314c0f7b2291e5b200ac8c7c3b92560405160405180910390a4505050565b6000600480549050905090565b600060056000838152602001908152602001600020549050919050565b6116d88161354b565b61172d576040517f08c379a000000000000000000000000000000000000000000000000000000000815260040180806020018281038252602c815260200180613aed602c913960400191505060405180910390fd5b60006001600083815260200190815260200160002060009054906101000a900473ffffffffffffffffffffffffffffffffffffffff169050600033905060008173ffffffffffffffffffffffffffffffffffffffff168373ffffffffffffffffffffffffffffffffffffffff1614806117d957508173ffffffffffffffffffffffffffffffffffffffff166117c1856113b9565b73ffffffffffffffffffffffffffffffffffffffff16145b806117ea57506117e983836134b7565b5b905080611842576040517f08c379a0000000000000000000000000000000000000000000000000000000008152600401808060200182810382526031815260200180613bbf6031913960400191505060405180910390fd5b8573ffffffffffffffffffffffffffffffffffffffff168373ffffffffffffffffffffffffffffffffffffffff16146118c6576040517f08c379a0000000000000000000000000000000000000000000000000000000008152600401808060200182810382526029815260200180613b756029913960400191505060405180910390fd5b600073ffffffffffffffffffffffffffffffffffffffff168573ffffffffffffffffffffffffffffffffffffffff16141561194c576040517f08c379a0000000000000000000000000000000000000000000000000000000008152600401808060200182810382526024815260200180613b196024913960400191505060405180910390fd5b611957600085611454565b600061196287612551565b905060005b8160ff168160ff161015611a3b57856000808a73ffffffffffffffffffffffffffffffffffffffff1673ffffffffffffffffffffffffffffffffffffffff1681526020019081526020016000208260ff16815481106119c257fe5b90600052602060002001541415611a2e576000808973ffffffffffffffffffffffffffffffffffffffff1673ffffffffffffffffffffffffffffffffffffffff1681526020019081526020016000208160ff1681548110611a1f57fe5b90600052602060002001600090555b8080600101915050611967565b506000808773ffffffffffffffffffffffffffffffffffffffff1673ffffffffffffffffffffffffffffffffffffffff168152602001908152602001600020859080600181540180825580915050600190039060005260206000200160009091909190915055856001600087815260200190815260200160002060006101000a81548173ffffffffffffffffffffffffffffffffffffffff021916908373ffffffffffffffffffffffffffffffffffffffff160217905550848673ffffffffffffffffffffffffffffffffffffffff168873ffffffffffffffffffffffffffffffffffffffff167fddf252ad1be2c89b69c2b068fc378daa952ba7f163c4a11628f55a4df523b3ef60405160405180910390a450505050505050565b6000339050611b658261354b565b15611bd8576040517f08c379a00000000000000000000000000000000000000000000000000000000081526004018080602001828103825260168152602001807f5468657265206973206e6f207375636820746f6b656e0000000000000000000081525060200191505060405180910390fd5b6000611be3836116b2565b9050611bed6139ed565b600e60008381526020019081526020016000206040518061012001604052908160008201548152602001600182018054600181600116156101000203166002900480601f016020809104026020016040519081016040528092919081815260200182805460018160011615610100020316600290048015611caf5780601f10611c8457610100808354040283529160200191611caf565b820191906000526020600020905b815481529060010190602001808311611c9257829003601f168201915b50505050508152602001600282018054600181600116156101000203166002900480601f016020809104026020016040519081016040528092919081815260200182805460018160011615610100020316600290048015611d515780601f10611d2657610100808354040283529160200191611d51565b820191906000526020600020905b815481529060010190602001808311611d3457829003601f168201915b5050505050815260200160038201548152602001600482018054600181600116156101000203166002900480601f016020809104026020016040519081016040528092919081815260200182805460018160011615610100020316600290048015611dfd5780601f10611dd257610100808354040283529160200191611dfd565b820191906000526020600020905b815481529060010190602001808311611de057829003601f168201915b505050505081526020016005820160009054906101000a900473ffffffffffffffffffffffffffffffffffffffff1673ffffffffffffffffffffffffffffffffffffffff1673ffffffffffffffffffffffffffffffffffffffff168152602001600682018054600181600116156101000203166002900480601f016020809104026020016040519081016040528092919081815260200182805460018160011615610100020316600290048015611ef55780601f10611eca57610100808354040283529160200191611ef5565b820191906000526020600020905b815481529060010190602001808311611ed857829003601f168201915b5050505050815260200160078201548152602001600882018054600181600116156101000203166002900480601f016020809104026020016040519081016040528092919081815260200182805460018160011615610100020316600290048015611fa15780601f10611f7657610100808354040283529160200191611fa1565b820191906000526020600020905b815481529060010190602001808311611f8457829003601f168201915b50505050508152505090508060600151341015611fbd57600080fd5b8273ffffffffffffffffffffffffffffffffffffffff163373ffffffffffffffffffffffffffffffffffffffff161415611ff657600080fd5b8060600151341115612050573373ffffffffffffffffffffffffffffffffffffffff166108fc826060015134039081150290604051600060405180830381858888f1935050505015801561204e573d6000803e3d6000fd5b505b8060a0015173ffffffffffffffffffffffffffffffffffffffff166108fc82606001519081150290604051600060405180830381858888f1935050505015801561209e573d6000803e3d6000fd5b506120ae8160a0015133866116cf565b600b600081548092919060019003919050555050505050565b6000806000808573ffffffffffffffffffffffffffffffffffffffff1673ffffffffffffffffffffffffffffffffffffffff168152602001908152602001600020838154811061211357fe5b90600052602060002001549050600560008281526020019081526020016000205491505092915050565b600073ffffffffffffffffffffffffffffffffffffffff168273ffffffffffffffffffffffffffffffffffffffff1614156121e0576040517f08c379a00000000000000000000000000000000000000000000000000000000081526004018080602001828103825260208152602001807f4552433732313a206d696e7420746f20746865207a65726f206164647265737381525060200191505060405180910390fd5b6121e98161354b565b1561223f576040517f08c379a000000000000000000000000000000000000000000000000000000000815260040180806020018281038252602c815260200180613aed602c913960400191505060405180910390fd5b6000808373ffffffffffffffffffffffffffffffffffffffff1673ffffffffffffffffffffffffffffffffffffffff168152602001908152602001600020819080600181540180825580915050600190039060005260206000200160009091909190915055816001600083815260200190815260200160002060006101000a81548173ffffffffffffffffffffffffffffffffffffffff021916908373ffffffffffffffffffffffffffffffffffffffff160217905550600481908060018154018082558091505060019003906000526020600020016000909190919091505560006001600480549050039050806005600084815260200190815260200160002081905550818373ffffffffffffffffffffffffffffffffffffffff16600073ffffffffffffffffffffffffffffffffffffffff167fddf252ad1be2c89b69c2b068fc378daa952ba7f163c4a11628f55a4df523b3ef60405160405180910390a4505050565b6123b08383836116cf565b6123cb83838360405180602001604052806000815250613598565b6123d457600080fd5b505050565b6000600482815481106123e857fe5b90600052602060002001549050919050565b8060099080519060200190612410929190613a4f565b5050565b600061241f8261354b565b612474576040517f08c379a000000000000000000000000000000000000000000000000000000000815260040180806020018281038252602c815260200180613aed602c913960400191505060405180910390fd5b6001600083815260200190815260200160002060009054906101000a900473ffffffffffffffffffffffffffffffffffffffff169050919050565b606060098054600181600116156101000203166002900480601f0160208091040260200160405190810160405280929190818152602001828054600181600116156101000203166002900480156125475780601f1061251c57610100808354040283529160200191612547565b820191906000526020600020905b81548152906001019060200180831161252a57829003601f168201915b5050505050905090565b60008073ffffffffffffffffffffffffffffffffffffffff168273ffffffffffffffffffffffffffffffffffffffff1614156125d8576040517f08c379a0000000000000000000000000000000000000000000000000000000008152600401808060200182810382526027815260200180613bf06027913960400191505060405180910390fd5b6000808373ffffffffffffffffffffffffffffffffffffffff1673ffffffffffffffffffffffffffffffffffffffff168152602001908152602001600020805490509050919050565b61262b838361213d565b6126386000848484613598565b61264157600080fd5b505050565b60008851116126bd576040517f08c379a00000000000000000000000000000000000000000000000000000000081526004018080602001828103825260188152602001807f546865206e616d652063616e6e6f7420626520656d707479000000000000000081525060200191505060405180910390fd5b6000875111612734576040517f08c379a000000000000000000000000000000000000000000000000000000000815260040180806020018281038252601f8152602001807f546865206465736372697074696f6e2063616e6e6f7420626520656d7074790081525060200191505060405180910390fd5b60008651116127ab576040517f08c379a00000000000000000000000000000000000000000000000000000000081526004018080602001828103825260188152602001807f54686520646174652063616e6e6f7420626520656d707479000000000000000081525060200191505060405180910390fd5b60008511612821576040517f08c379a00000000000000000000000000000000000000000000000000000000081526004018080602001828103825260188152602001807f5468652070726963652063616e6e6f74206265207a65726f000000000000000081525060200191505060405180910390fd5b6000845111612898576040517f08c379a00000000000000000000000000000000000000000000000000000000081526004018080602001828103825260198152602001807f54686520696d6167652063616e6e6f7420626520656d7074790000000000000081525060200191505060405180910390fd5b6000831161290e576040517f08c379a00000000000000000000000000000000000000000000000000000000081526004018080602001828103825260198152602001807f546865207261726974792063616e6e6f74206265207a65726f0000000000000081525060200191505060405180910390fd5b6000825111612985576040517f08c379a000000000000000000000000000000000000000000000000000000000815260040180806020018281038252601c8152602001807f546865206c6f636174696f6e2063616e6e6f7420626520656d7074790000000081525060200191505060405180910390fd5b604051806101200160405280600c5481526020018981526020018881526020018681526020018781526020018273ffffffffffffffffffffffffffffffffffffffff16815260200185815260200184815260200183815250600e6000600c548152602001908152602001600020600082015181600001556020820151816001019080519060200190612a18929190613a4f565b506040820151816002019080519060200190612a35929190613a4f565b50606082015181600301556080820151816004019080519060200190612a5c929190613a4f565b5060a08201518160050160006101000a81548173ffffffffffffffffffffffffffffffffffffffff021916908373ffffffffffffffffffffffffffffffffffffffff16021790555060c0820151816006019080519060200190612ac0929190613a4f565b5060e08201518160070155610100820151816008019080519060200190612ae8929190613a4f565b50905050612af881600c54612c35565b6000612b05600c546116b2565b905080600e60008381526020019081526020016000206000018190555081600d6000600c54815260200190815260200160002060006101000a81548173ffffffffffffffffffffffffffffffffffffffff021916908373ffffffffffffffffffffffffffffffffffffffff160217905550600b60008154809291906001019190505550505050505050505050565b606060078054600181600116156101000203166002900480601f016020809104026020016040519081016040528092919081815260200182805460018160011615610100020316600290048015612c2b5780601f10612c0057610100808354040283529160200191612c2b565b820191906000526020600020905b815481529060010190602001808311612c0e57829003601f168201915b5050505050905090565b612c3f828261213d565b612c5b6000838360405180602001604052806000815250613598565b612c6457600080fd5b5050565b3373ffffffffffffffffffffffffffffffffffffffff168273ffffffffffffffffffffffffffffffffffffffff161415612d0a576040517f08c379a00000000000000000000000000000000000000000000000000000000081526004018080602001828103825260198152602001807f4552433732313a20617070726f766520746f2063616c6c65720000000000000081525060200191505060405180910390fd5b80600360003373ffffffffffffffffffffffffffffffffffffffff1673ffffffffffffffffffffffffffffffffffffffff16815260200190815260200160002060008473ffffffffffffffffffffffffffffffffffffffff1673ffffffffffffffffffffffffffffffffffffffff16815260200190815260200160002060006101000a81548160ff0219169083151502179055508173ffffffffffffffffffffffffffffffffffffffff163373ffffffffffffffffffffffffffffffffffffffff167f17307eab39ab6107e8899845ad3d59bd9653f200f220920489ca2b5937696c318360405180821515815260200191505060405180910390a35050565b600e602052806000526040600020600091509050806000015490806001018054600181600116156101000203166002900480601f016020809104026020016040519081016040528092919081815260200182805460018160011615610100020316600290048015612ebb5780601f10612e9057610100808354040283529160200191612ebb565b820191906000526020600020905b815481529060010190602001808311612e9e57829003601f168201915b505050505090806002018054600181600116156101000203166002900480601f016020809104026020016040519081016040528092919081815260200182805460018160011615610100020316600290048015612f595780601f10612f2e57610100808354040283529160200191612f59565b820191906000526020600020905b815481529060010190602001808311612f3c57829003601f168201915b505050505090806003015490806004018054600181600116156101000203166002900480601f016020809104026020016040519081016040528092919081815260200182805460018160011615610100020316600290048015612ffd5780601f10612fd257610100808354040283529160200191612ffd565b820191906000526020600020905b815481529060010190602001808311612fe057829003601f168201915b5050505050908060050160009054906101000a900473ffffffffffffffffffffffffffffffffffffffff1690806006018054600181600116156101000203166002900480601f0160208091040260200160405190810160405280929190818152602001828054600181600116156101000203166002900480156130c15780601f10613096576101008083540402835291602001916130c1565b820191906000526020600020905b8154815290600101906020018083116130a457829003601f168201915b505050505090806007015490806008018054600181600116156101000203166002900480601f0160208091040260200160405190810160405280929190818152602001828054600181600116156101000203166002900480156131655780601f1061313a57610100808354040283529160200191613165565b820191906000526020600020905b81548152906001019060200180831161314857829003601f168201915b5050505050905089565b61317a8484846116cf565b61318684848484613598565b61318f57600080fd5b50505050565b600b5481565b600d6020528060005260406000206000915054906101000a900473ffffffffffffffffffffffffffffffffffffffff1681565b60606131d98261354b565b61322e576040517f08c379a000000000000000000000000000000000000000000000000000000000815260040180806020018281038252602c815260200180613aed602c913960400191505060405180910390fd5b6060600860008481526020019081526020016000208054600181600116156101000203166002900480601f0160208091040260200160405190810160405280929190818152602001828054600181600116156101000203166002900480156132d75780601f106132ac576101008083540402835291602001916132d7565b820191906000526020600020905b8154815290600101906020018083116132ba57829003601f168201915b5050505050905060006009805460018160011615610100020316600290049050141561330657809150506134b2565b6000815111156133df5760098160405160200180838054600181600116156101000203166002900480156133715780601f1061334f576101008083540402835291820191613371565b820191906000526020600020905b81548152906001019060200180831161335d575b505082805190602001908083835b602083106133a2578051825260208201915060208101905060208303925061337f565b6001836020036101000a038019825116818451168082178552505050505050905001925050506040516020818303038152906040529150506134b2565b60096133ea84613894565b60405160200180838054600181600116156101000203166002900480156134485780601f10613426576101008083540402835291820191613448565b820191906000526020600020905b815481529060010190602001808311613434575b505082805190602001908083835b602083106134795780518252602082019150602081019050602083039250613456565b6001836020036101000a038019825116818451168082178552505050505050905001925050506040516020818303038152906040529150505b919050565b6000600360008473ffffffffffffffffffffffffffffffffffffffff1673ffffffffffffffffffffffffffffffffffffffff16815260200190815260200160002060008373ffffffffffffffffffffffffffffffffffffffff1673ffffffffffffffffffffffffffffffffffffffff16815260200190815260200160002060009054906101000a900460ff16905092915050565b60008060048054905014156135635760009050613593565b81600460056000858152602001908152602001600020548154811061358457fe5b90600052602060002001541490505b919050565b60006135a3846139da565b6135b0576001905061388c565b600060608573ffffffffffffffffffffffffffffffffffffffff1633888787604051602401808573ffffffffffffffffffffffffffffffffffffffff1681526020018473ffffffffffffffffffffffffffffffffffffffff16815260200183815260200180602001828103825283818151815260200191508051906020019080838360005b83811015613650578082015181840152602081019050613635565b50505050905090810190601f16801561367d5780820380516001836020036101000a031916815260200191505b50955050505050506040516020818303038152906040527f150b7a02000000000000000000000000000000000000000000000000000000007bffffffffffffffffffffffffffffffffffffffffffffffffffffffff19166020820180517bffffffffffffffffffffffffffffffffffffffffffffffffffffffff83818316178352505050506040518082805190602001908083835b602083106137355780518252602082019150602081019050602083039250613712565b6001836020036101000a0380198251168184511680821785525050505050509050019150506000604051808303816000865af19150503d8060008114613797576040519150601f19603f3d011682016040523d82523d6000602084013e61379c565b606091505b509150915081613814576040517f08c379a00000000000000000000000000000000000000000000000000000000081526004018080602001828103825260108152602001807f6c6f772d6c6576656c2d6661696c65640000000000000000000000000000000081525060200191505060405180910390fd5b600081806020019051602081101561382b57600080fd5b8101908080519060200190929190505050905063150b7a0260e01b7bffffffffffffffffffffffffffffffffffffffffffffffffffffffff1916817bffffffffffffffffffffffffffffffffffffffffffffffffffffffff19161493505050505b949350505050565b606060008214156138dc576040518060400160405280600181526020017f300000000000000000000000000000000000000000000000000000000000000081525090506139d5565b6000808390505b60008114613905578180600101925050600a81816138fd57fe5b0490506138e3565b60608267ffffffffffffffff8111801561391e57600080fd5b506040519080825280601f01601f1916602001820160405280156139515781602001600182028036833780820191505090505b50905060006001840390508592505b600083146139cd57600a838161397257fe5b0660300160f81b8282806001900393508151811061398c57fe5b60200101907effffffffffffffffffffffffffffffffffffffffffffffffffffffffffffff1916908160001a905350600a83816139c557fe5b049250613960565b819450505050505b919050565b600080823b905060008111915050919050565b6040518061012001604052806000815260200160608152602001606081526020016000815260200160608152602001600073ffffffffffffffffffffffffffffffffffffffff1681526020016060815260200160008152602001606081525090565b828054600181600116156101000203166002900490600052602060002090601f016020900481019282601f10613a9057805160ff1916838001178555613abe565b82800160010185558215613abe579182015b82811115613abd578251825591602001919060010190613aa2565b5b509050613acb9190613acf565b5090565b5b80821115613ae8576000816000905550600101613ad0565b509056fe4552433732313a20617070726f76656420717565727920666f72206e6f6e6578697374616e7420746f6b656e4552433732313a207472616e7366657220746f20746865207a65726f20616464726573734552433732313a20617070726f76652063616c6c6572206973206e6f74206f776e6572206e6f7220617070726f76656420666f7220616c6c4552433732313a207472616e73666572206f6620746f6b656e2074686174206973206e6f74206f776e4552433732313a20617070726f76616c20746f2063757272656e74206f776e65724552433732313a207472616e736665722063616c6c6572206973206e6f74206f776e6572206e6f7220617070726f766564455243373231203a2062616c616e636520717565727920666f72207a65726f2061646472657373a264697066735822122090e31a16706faabfd13561231173a2f6de01e416c794ddb77be6cd4562744d0a64736f6c634300070100334552433732313a20617070726f76656420717565727920666f72206e6f6e6578697374616e7420746f6b656e",
  "immutableReferences": {},
  "source": "// SPDX-License-Identifier: MIT\r\n\r\npragma solidity >=0.4.22 <0.9.0;\r\n\r\nimport \"./ERC721Standard.sol\";\r\n\r\ncontract SparklesToken is ERC721Standard {\r\n\r\n    address admin;\r\n    uint256 public notSoldJewels;\r\n    uint256 tokenId;\r\n    mapping(uint256 => address) public idToOwner;\r\n    \r\n    struct Jewel{\r\n        uint256 token_id;\r\n        string name;\r\n        string description;\r\n        uint256 price;\r\n        string date;\r\n        address payable owner;\r\n        string image_url;\r\n        uint256 rarity;\r\n        string location;\r\n    }\r\n    mapping(uint256 => Jewel) public jewels;\r\n\r\n    constructor(string memory _name, string memory _symbol) ERC721Standard(_name,_symbol) {\r\n        address payable owner = msg.sender;\r\n        Jewel memory jewl = Jewel(tokenId,\"Saphirre\",\"Saphirre\",100,\"12-12-2020\",owner,\"http://google.com\",100,\"London\");\r\n        jewels[tokenId] = jewl;\r\n\r\n        mint(owner, tokenId);\r\n        idToOwner[tokenId] = owner;\r\n        tokenId++;\r\n    }\r\n\r\n    function createToken(string memory _name,string memory _description,string memory _date,uint256 _price,string memory _image_url,uint256 _rarity,string memory _location,address payable _owner) external{\r\n        require(bytes(_name).length > 0, 'The name cannot be empty');\r\n        require(bytes(_description).length > 0, 'The description cannot be empty');\r\n        require(bytes(_date).length > 0, 'The date cannot be empty');\r\n        require(_price > 0 , 'The price cannot be zero');\r\n        require(bytes(_image_url).length > 0, 'The image cannot be empty');\r\n        require(_rarity > 0 , 'The rarity cannot be zero');\r\n        require(bytes(_location).length > 0, 'The location cannot be empty');\r\n\r\n\r\n        jewels[tokenId] = Jewel(tokenId, _name,_description,_price,_date, _owner, _image_url, _rarity, _location);\r\n        safeMint(_owner, tokenId);\r\n        uint _index = getTokenIndexByTokenID(tokenId);\r\n        jewels[_index].token_id = _index;\r\n        idToOwner[tokenId] = _owner;\r\n        notSoldJewels++;\r\n    }\r\n\r\n    function buyToken(uint256 token_id) payable public{\r\n        address payable owner = msg.sender;\r\n        require(!_exists(token_id),\"There is no such token\");\r\n        uint token_index = getTokenIndexByTokenID(token_id);\r\n        Jewel memory jewl = jewels[token_index];\r\n        require(msg.value >= jewl.price);\r\n        require(msg.sender != owner);\r\n            \r\n        if (msg.value > jewl.price) {\r\n            msg.sender.transfer(msg.value - jewl.price);\r\n        }\r\n        jewl.owner.transfer(jewl.price);\r\n        transferFrom(jewl.owner, msg.sender, token_id);\r\n        //jewl[token_id].owner = msg.sender;\r\n        notSoldJewels--;\r\n    }\r\n}",
  "sourcePath": "C:/work/blockchain_course/semester2/smart_contract_essentials/final_project/contracts/SparklesToken.sol",
  "compiler": {
    "name": "solc",
    "version": "0.7.1+commit.f4a555be.Emscripten.clang"
  },
  "schemaVersion": "3.3.3",
  "updatedAt": "2021-01-30T19:53:15.356Z",
  "devdoc": {
    "kind": "dev",
    "methods": {
      "balanceOf(address)": {
        "details": "NFTs assigned to the zero address are considered invalid, and this  function throws for queries about the zero address.",
        "params": {
          "_owner": "An address for whom to query the balance"
        },
        "returns": {
          "_0": "The number of NFTs owned by `_owner`, possibly zero"
        }
      },
      "getApproved(uint256)": {
        "details": "Throws if `_tokenId` is not a valid NFT.",
        "params": {
          "_tokenId": "The NFT to find the approved address for"
        },
        "returns": {
          "_0": "The approved address for this NFT, or the zero address if there is none"
        }
      },
      "isApprovedForAll(address,address)": {
        "params": {
          "_operator": "The address that acts on behalf of the owner",
          "_owner": "The address that owns the NFTs"
        },
        "returns": {
          "_0": "True if `_operator` is an approved operator for `_owner`, false otherwise"
        }
      },
      "ownerOf(uint256)": {
        "details": "NFTs assigned to zero address are considered invalid, and queries  about them do throw.",
        "params": {
          "_tokenId": "The identifier for an NFT"
        },
        "returns": {
          "_0": "The address of the owner of the NFT"
        }
      },
      "safeTransferFrom(address,address,uint256)": {
        "details": "This works identically to the other function with an extra data parameter,  except this function just sets data to \"\".",
        "params": {
          "_from": "The current owner of the NFT",
          "_to": "The new owner",
          "_tokenId": "The NFT to transfer"
        }
      },
      "setApprovalForAll(address,bool)": {
        "details": "Emits the ApprovalForAll event. The contract MUST allow  multiple operators per owner.",
        "params": {
          "_approved": "True if the operator is approved, false to revoke approval",
          "_operator": "Address to add to the set of authorized operators"
        }
      },
      "transferFrom(address,address,uint256)": {
        "details": "Throws unless `msg.sender` is the current owner, an authorized  operator, or the approved address for this NFT. Throws if `_from` is  not the current owner. Throws if `_to` is the zero address. Throws if  `_tokenId` is not a valid NFT.",
        "params": {
          "_from": "The current owner of the NFT",
          "_to": "The new owner",
          "_tokenId": "The NFT to transfer"
        }
      }
    },
    "version": 1
  },
  "userdoc": {
    "kind": "user",
    "methods": {
      "balanceOf(address)": {
        "notice": "Count all NFTs assigned to an owner"
      },
      "getApproved(uint256)": {
        "notice": "Get the approved address for a single NFT"
      },
      "isApprovedForAll(address,address)": {
        "notice": "Query if an address is an authorized operator for another address"
      },
      "ownerOf(uint256)": {
        "notice": "Find the owner of an NFT"
      },
      "safeTransferFrom(address,address,uint256)": {
        "notice": "Transfers the ownership of an NFT from one address to another address"
      },
      "setApprovalForAll(address,bool)": {
        "notice": "Enable or disable approval for a third party (\"operator\") to manage  all of `msg.sender`'s assets"
      },
      "transferFrom(address,address,uint256)": {
        "notice": "Transfer ownership of an NFT -- THE CALLER IS RESPONSIBLE  TO CONFIRM THAT `_to` IS CAPABLE OF RECEIVING NFTS OR ELSE  THEY MAY BE PERMANENTLY LOST"
      }
    },
    "version": 1
  }
}